:020000040800F2
:10000000800A0020550200089302000895020008AB
:1000100097020008990200089B02000800000000F7
:100020000000000000000000000000009D02000829
:100030009F02000800000000A1020008A3020008BF
:10004000A5020008A5020008A5020008A5020008F4
:10005000A5020008A5020008A5020008A5020008E4
:10006000A5020008A5020008A5020008A5020008D4
:10007000A5020008A5020008A5020008A5020008C4
:10008000A5020008A5020008A5020008A5020008B4
:10009000A5020008A5020008A5020008A5020008A4
:1000A000A5020008A5020008A5020008A502000894
:1000B000A5020008A5020008A50200084D040008DA
:1000C00049040008A5020008A5020008A5020008CE
:1000D000A5020008A5020008A5020008A502000864
:1000E000A5020008A5020008A5020008A502000854
:1000F000A5020008A5020008A5020008A502000844
:10010000A5020008A5020008A5020008A502000833
:10011000A5020008A5020008A5020008A502000823
:10012000A5020008A5020008A5020008A502000813
:10013000A5020008A5020008A5020008A502000803
:10014000A5020008A5020008A5020008A5020008F3
:10015000A5020008A5020008A5020008A5020008E3
:10016000A5020008A5020008A5020008A5020008D3
:10017000A5020008A5020008A50200080000000072
:10018000A5020008A502000800F002F800F052F8ED
:1001900014A696E8000CB244B344DA4501D100F04D
:1001A00049F8BAE80F000FA696E83000A5EB040561
:1001B00004EB0607AAEB0704A7F101074FEA1515A0
:1001C0004FEA3414A4F10104AC4201D300F032F838
:1001D00013F0010F18BFFB1A43F0010300F001F800
:1001E000DBE71847E41E0000041F0000103A24BF9C
:1001F00078C878C1FAD8520724BF30C830C144BF8C
:1002000004680C6070470000704700000023002461
:1002100000250026103A28BF78C1FBD8520728BF16
:1002200030C148BF0B6070471FB501F072F81FBDA9
:1002300010B510BD00F0D2F81146FFF7F5FF00F041
:1002400019FD00F0F0F803B4FFF7F2FF03BC00F073
:10025000F3F8000017481849184B99423CBF50F872
:10026000042B41F8042BF8D3154B16494FF000022C
:100270008B4238BF43F8042BFAD3DFF84C000168F7
:1002800041F470010160BFF34F8FBFF36F8F0F48D0
:100290000047FEE7FEE7FEE7FEE7FEE7FEE7FEE7D4
:1002A000FEE7FEE7FEE7000009480A490A4A0B4B51
:1002B00070470000E820000800000020180000201F
:1002C00018000020800A002088ED00E08901000865
:1002D00080040020800A0020800600208006002084
:1002E000032A40F2308010F0030C00F0158011F862
:1002F000013BBCF1020F624498BF11F801CB00F83A
:10030000013B38BF11F8013BA2F1040298BF00F88D
:1003100001CB38BF00F8013B11F0030300F0288047
:10032000083AC0F0088051F8043B083A51F804CB71
:10033000A0E80810F5E7121D5CBF51F8043B40F837
:10034000043BAFF30080D20724BF11F8013B11F842
:1003500001CB48BF11F8012B24BF00F8013B00F886
:1003600001CB48BF00F8012B7047704770477047BA
:1003700010B5203AC0F00B80B1E81850A0E8185032
:10038000B1E81850A0E81850203ABFF4F5AF5FEA82
:10039000027C24BFB1E81850A0E8185044BF18C927
:1003A00018C0BDE810405FEA827C24BF51F8043BCE
:1003B00040F8043B08BF7047D20728BF31F8023B22
:1003C00048BF11F8012B28BF20F8023B48BF00F8B6
:1003D000012B704700487047180000207546FFF752
:1003E000F9FFAE4605006946534620F007008546F2
:1003F00018B020B5FFF758FFBDE820404FF00006C9
:100400004FF000074FF000084FF0000BAC46ACE88F
:10041000C009ACE8C009ACE8C009ACE8C00921F0EB
:1004200007018D46704710B50446AFF300802046A3
:10043000BDE81040FFF707BF01491820ABBEFEE73B
:10044000260002007047000070470000704700005F
:1004500041F24C01C4F20201086840F00200086059
:1004600040F20041C4F60001086820F470200860E2
:10047000086840F42020086040F22441C4F60001DE
:10048000086820F0FF000860086840F04400086039
:1004900040F20841C4F60001086820F470200860AA
:1004A000086840F4A020086040F20C41C4F6000146
:1004B000086820F470200860086840F4A0200860F4
:1004C00040F20441C4F60001086840F4C0700860BE
:1004D0007047000082B0019052200090019845F2D0
:1004E0000041C4F20001884221D1FFE741F25801E6
:1004F000C4F20201086840F40010086041F288016B
:10050000C4F20201086820F440500860086840F412
:100510008050086041F23801C4F20201086840F4DA
:1005200000100860086820F40010086053E001988B
:1005300045F60001C4F20001884221D1FFE741F2F3
:100540005801C4F20201086840F48000086041F2DA
:100550008801C4F20201086820F44040086008687D
:1005600040F48040086041F23801C4F2020108689A
:1005700040F480000860086820F48000086029E0EA
:10058000019845F60041C4F20001884221D1FFE7FD
:1005900041F25801C4F20201086840F4000008600A
:1005A00041F28801C4F20201086820F4403008607A
:1005B000086840F48030086041F23801C4F202015A
:1005C000086840F400000860086820F40000086033
:1005D000FFE7FFE7FFE70199086820F001000860E6
:1005E0000199086820F4805008600199086820F497
:1005F000706008600199086840F080000860019907
:10060000002008610199086920F070400861019993
:10061000086940F0E04008610199086940F00E0067
:1006200008610199086940F46060086101990869EE
:1006300040F4801008610199086940F400300861B5
:100640000199886820F400408860009840F40040D8
:10065000019988600199086820F4003008600199C8
:10066000886820F4004088600199486820F40060A0
:1006700048600199486840F00070486001994868F6
:1006800040F4004048600199086840F001000860AB
:1006900002B0704780B588B006908DF817100492AC
:1006A0008DF80F309DF80F00012803DBFFE7049859
:1006B00020B9FFE7FF208DF81F0054E0069800F0F6
:1006C0009FF806989DF817109DF80F20002300F062
:1006D0004FF8B0F1FF3F04DCFFE7FF208DF81F006B
:1006E00041E000200290FFE702989DF80F10884239
:1006F00011DAFFE7FFE706988069C00708B9FFE74E
:10070000F9E704980299405C06998862FFE702982D
:1007100001300290E8E7FFE706988169002049066A
:100720000029019009D4FFE70698806900F01001C4
:10073000012080EA11100190FFE70198C00708B17D
:10074000FFE7E9E706988069C006002804D5FFE7BF
:10075000FF208DF81F0006E0069800F03FF800200B
:100760008DF81F00FFE79DF91F0008B080BD000055
:1007700084B0039002918DF807208DF80630002098
:100780000090039840680090009849F60001CFF669
:100790000041084000909DF80600012805D1FFE7C0
:1007A000009840F48060009004E0009820F480609D
:1007B0000090FFE702986FF39F209DF8071040EA32
:1007C0000141009808430090009840F400500090C8
:1007D000009803994860002004B0704781B00090F1
:1007E0000099486840F480404860FFE700988069BD
:1007F0008006002801D4FFE7F8E701B07047000049
:1008000081B00090FFE7009880690004002801D5BE
:10081000FFE7F8E701B0704741F24C01C4F2020172
:10082000086840F00400086040F60001C4F60001CA
:10083000086820F0FF000860086840F05500086074
:1008400008684FF6FF42CFF60F421040086040F6AE
:100850000C01C4F6000108681040086040F604016D
:10086000C4F60001086820F00F000860086840F036
:100870000F0008607047000083B042F20001C4F22C
:100880000201086820F007000860086840F00200D4
:10089000086041F20001C4F20201086840F480706F
:1008A0000860FFE741F20000C4F202000068400562
:1008B000002801D4FFE7F5E71020029041F204017F
:1008C000C4F20201086820F0F8500860029A086833
:1008D00040EA0260086041F20001C4F202010868C7
:1008E00020F080700860FFE741F20000C4F20200CF
:1008F00000688001002801D5FFE7F5E741F20C010F
:10090000C4F202010191086820F003000860086841
:1009100040F0020008600868142262F30E200860AC
:100920000868012262F306100860086820F0C060C1
:100930000860086840F08070086041F20001C4F26D
:100940000201086840F080700860FFE741F2000093
:10095000C4F2020000688001002801D4FFE7F5E737
:1009600041F20801C4F20201086820F003000860A7
:10097000086840F003000860FFE741F20800C4F295
:100980000200006800F00C000C2801D0FFE7F4E73B
:1009900041F20801C4F20201086820F0F00008608A
:1009A000086820F4E0600860086820F4605008607F
:1009B00041F20001C4F20201086820F08060086082
:1009C000FFE741F20000C4F2020000684001002885
:1009D00001D5FFE7F5E741F21001C4F202010091F1
:1009E000086820F4FE400860086840F4C0500860C1
:1009F000086840F400300860086840F480300860FF
:100A000041F20001C4F20201086840F08060086011
:100A1000FFE741F20000C4F2020000684001002834
:100A200001D4FFE7F5E741F28801C4F2020108684A
:100A300020F44000086041F26001C4F2020108683D
:100A400040F40010086003B0704700008EB004202E
:100A50008DF83600FF208DF8330040F61401C4F6FF
:100A60000001086820F00F00086001200B900A9038
:100A700009900890FFE70B990020009081B1FFE7F3
:100A80000A990020009059B1FFE7099900200090D1
:100A900031B1FFE70898002818BF01200090FFE758
:100AA0000098C007A8B1FFE740F61000C4F60000A8
:100AB000016801F010010B91016801F480610A9155
:100AC000016801F400610991006800F48050089009
:100AD000D1E70B9800110B900A9880120A900998A0
:100AE000C01209900898001308900B98012810D1A3
:100AF000FFE70A9801280CD1FFE70998012808D1DF
:100B0000FFE70898012804D1FFE7FF208DF83700A0
:100B1000ABE00B9820B9FFE700208DF8340017E018
:100B20000A9820B9FFE701208DF834000FE00998FA
:100B300020B9FFE702208DF8340007E0089820B9BB
:100B4000FFE703208DF83400FFE7FFE7FFE7FFE74B
:100B5000072007900B2006900D2005900E20049092
:100B600000200390FFE703989DF83610884277DA5B
:100B7000FFE740F61401C4F60001086820F00F00FA
:100B8000039B04AA52F8232010430860002002901F
:100B9000FFE70298B0F57A7F05DAFFE7FFE70298F2
:100BA00001300290F5E7012001909DF8340060B912
:100BB000FFE740F61000C4F60000006800F01000E7
:100BC000019001980011019035E09DF83400012852
:100BD0000CD1FFE740F61000C4F60000006800F4F6
:100BE0008060019001988012019023E09DF834000C
:100BF00002280CD1FFE740F61000C4F600000068A0
:100C000000F4006001900198C012019011E09DF87D
:100C1000340003280CD1FFE740F61000C4F60000B2
:100C2000006800F480500190019800130190FFE7E4
:100C3000FFE7FFE7FFE7019868B9FFE7039940F294
:100C40000800C2F2000000EB81009DF83410405C07
:100C50008DF83300FFE7FFE703980130039082E748
:100C60009DF833008DF83700FFE79DF837000EB090
:100C70007047000080B5ACB0002002902B90299006
:100C80002890279041F22C31C0F6000117A840228D
:100C9000FFF726FB02980F218DF81A108DF8190026
:100CA00020208DF81800FFF7B7FDFFF7E5FDFFF7EF
:100CB000CFFB45F20040C4F20000FFF70BFC00F050
:100CC0002FF9012000F00EF90299022000F0B2F98C
:100CD000029B40F20000C2F20000016842680DF180
:100CE0001B0000F0EBFA00F0D9F9FFE7012000F05B
:100CF000F9F8FFF7ABFE8DF81A00FFE740F6100099
:100D0000C4F60000006841F610410840884201D056
:100D1000FFE7F3E700200590FFE7059844F23F2145
:100D2000C0F20F01884205DCFFE7FFE705980130BC
:100D30000590F2E79DF818009DF81A10884205D139
:100D4000FFE79DF818002A2853D1FFE79DF81A0005
:100D50000146019123281AD0FFE701982A2804D0E0
:100D6000FFE70198FF2813D013E09DF81900012830
:100D70000CDBFFE79DF8190001388DF819009DF88C
:100D800019200DF11B0100208854FFE71CE01BE037
:100D90001AE09DF81A009DF819200DF11B018854E6
:100DA0009DF819000144002048709DF81900013099
:100DB0008DF819009DF81900302804DBFFE70020AA
:100DC0008DF81900FFE7FFE79DF81A008DF818006D
:100DD00000200490FFE7049844F23F21C0F20F0185
:100DE000884205DCFFE7FFE7049801300490F2E752
:100DF000FFE740F20000C2F20000016842680DF116
:100E00001B000023009300F059FA00F047F9009806
:100E100000F068F80099022000F00CF900980390A7
:100E2000FFE7039842F20F71884205DCFFE7FFE716
:100E3000039801300390F4E758E7000081B08DF883
:100E400003008DF802108DF801209DF803007F2823
:100E500005DCFFE79DF80200402801DBFFE73FE0EB
:100E600040F27800C2F20000007940B1FFE79DF83F
:100E70000100B0FA80F040098DF80100FFE79DF80D
:100E80000100012816D1FFE79DF8022002F00701BA
:100E9000012000FA01F39DF803006FF0700101EAF0
:100EA0000211421840F28001C2F20001885C18432E
:100EB000885415E09DF8022002F00701012000FA95
:100EC00001F39DF803006FF0700101EA021142186E
:100ED00040F28001C2F20001885C98438854FFE729
:100EE00001B0704782B08DF8070000200090FFE746
:100EF00000990020B0EB912F10D1FFE79DF807007B
:100F0000002818BFFF20009A40F28001C2F20001C1
:100F10008854FFE7009801300090E9E702B070477D
:100F200080B584B000F074F800200390FFE70398C8
:100F300048F29F61C0F20101884205D8FFE7FFE750
:100F4000039801300390F2E70020019000F084F84C
:100F50002020009000F064F9019800F061F9B020C1
:100F600000F05EF9C82000F05BF9019800F058F934
:100F7000102000F055F9402000F052F9FF2000F059
:100F800049F8A12000F04CF9A62000F049F9A8206A
:100F900000F046F93F2000F043F9A42000F040F9AA
:100FA000D32000F03DF9019800F03AF9D52000F087
:100FB00037F9F02000F034F9D92000F031F922207F
:100FC00000F02EF9DA2000F02BF9122000F028F9B9
:100FD000DB2000F025F9009800F022F98D2000F0C8
:100FE0001FF9142000F01CF90120029000F034F8E1
:100FF0000198FFF777FF00F051F8019A029840F24C
:101000007801C2F200010A804A80487104B080BDB4
:101010007047000080B582B08DF8070081208DF800
:10102000060000F0FDF89DF8070000F0F9F802B0A6
:1010300080BD000081B08DF803008DF802109DF88E
:10104000030040F27801C2F2000108809DF802001E
:10105000488001B07047000080B582B08DF807006D
:101060009DF8070050B1FFE7AF208DF8060040F271
:101070007801C2F200010120887109E0AE208DF8EC
:10108000060040F27801C2F2000100208871FFE7FB
:101090009DF8060000F0C4F802B080BD80B582B0B3
:1010A00000208DF80700FFE79DF8070007281EDCE9
:1010B000FFE79DF80700B030C0B200F0B1F80020A3
:1010C00000F0AEF8102000F0ABF89DF8071040F2E9
:1010D0008000C2F2000000EBC110802100F0B8F8DF
:1010E000FFE79DF8070001308DF80700DCE702B04C
:1010F00080BD000080B588B0069205918DF8130080
:101100008DF812309DF81300202805DBFFE79DF8CD
:1011100013007F2804DBFFE700208DF81F007BE031
:1011200040F27800C2F2000000889DF814100844D4
:1011300080280BDCFFE740F27800C2F20000408814
:101140009DF815100844412804DBFFE700208DF8C6
:101150001F0061E000200390FFE703989DF8151041
:1011600088424BD2FFE706989DF8131020399DF86E
:101170001520039B11FB023130F811000290002072
:101180000190FFE701989DF81410884231D2FFE7E3
:101190000298019988400004002811D5FFE740F229
:1011A0007801C2F200010888019A10444988039A24
:1011B00011449DF81220C0B2C9B2FFF73FFE13E000
:1011C00040F27801C2F200010888019A104449886F
:1011D000039A11449DF81220B2FA82F25209C0B269
:1011E000C9B2FFF72BFEFFE7FFE70198013001903E
:1011F000C8E7FFE7039801300390AEE79DF814209D
:1012000040F27801C2F200010888104408809DF87D
:1012100013008DF81F00FFE79DF81F0008B080BD88
:1012200080B582B08DF8070000208DF805009DF88C
:1012300007008DF8060045F20040C4F20000782156
:101240000DF105020223FFF725FA02B080BD000070
:1012500080B5ADF5826DCDF80C04CDF808144020B2
:101260008DF803000020CDF80404FFE7DDF8040446
:10127000DDF80814884210D2FFE7DDF80C04DDF831
:101280000414405C0DF1030211444870FFE7DDF8DF
:1012900004040130CDF80404E8E7DDF80804013067
:1012A000C3B245F20040C4F2000078210DF1030200
:1012B000FFF7F0F90DF5826D80BD000080B586B0B6
:1012C0000492039102908DF80730FFE702980078AE
:1012D000B0B1FFE7029800789DF807300399049AAF
:1012E000FFF708FF02990978884205D0FFE70298C6
:1012F00000788DF8170008E0029801300290E5E7C9
:10130000029800788DF81700FFE79DF8170006B0E7
:1013100080BDF1EE100A4FF6FF71C0F2C03120EA35
:10132000010040F04070E1EE100A70474142434432
:1013300045464748494A4B000000000000000000B5
:10134000000000000000000000000000000000009D
:10135000000000000000000000000000000000008D
:10136000000000000000000000000000000000007D
:10137000000000000000000000000000000000006D
:10138000000000000000000000000000000000005D
:101390000000000C000C000C000C000C000C000CF9
:1013A000000C000C000C000C0000000C000C0000F5
:1013B000000000000000001B001B001B001B001BA6
:1013C000000000000000000000000000000000001D
:1013D0000000000000000000000080198019801942
:1013E0008019C07FC07F80190033C07FC07F003369
:1013F0000033003300330000000000000000001E36
:10140000003F807580650074003C001E0007800569
:10141000806580658075003F001E000400040000A8
:101420000000007000D840D8C0D880D900730006F2
:10143000000C801BC036C066C046C006800300009A
:10144000000000000000001E003F003300330033A6
:10145000001E000CC03CC066806380618063C03E9B
:10146000801C0000000000000000000C000C000CBC
:10147000000C000C00000000000000000000000054
:1014800000000000000000000000000080000001DB
:101490000003000600060004000C000C000C000C09
:1014A000000C000C00040006000600030001800090
:1014B000002000100018000C000C000400060006BC
:1014C00000060006000600060004000C000C0018D0
:1014D000001000200000000C002D003F001E003313
:1014E00000000000000000000000000000000000FC
:1014F0000000000000000000000000000000000CE0
:10150000000C000C000CC0FFC0FF000C000C000C15
:10151000000C0000000000000000000000000000BF
:1015200000000000000000000000000000000000BB
:10153000000000000000000C000C00040004000883
:10154000000000000000000000000000000000009B
:101550000000001E001E000000000000000000004F
:10156000000000000000000000000000000000007B
:101570000000000000000000000000000000000C5F
:10158000000C000000000000000000030003000346
:101590000006000600060006000C000C000C000C03
:1015A0000018001800180000000000000000001ED5
:1015B000003F0033806180618061806D806D80615B
:1015C000806180610033003F001E000000000000C9
:1015D00000000006000E001E003600260006000671
:1015E00000060006000600060006000600060000D1
:1015F000000000000000001E003F807380618061D9
:10160000800100030006000C001800300060807F9D
:10161000807F0000000000000000001C003E00630E
:1016200000630003000E000E000380018001806152
:101630008073003F001E0000000000000000000654
:10164000000E000E001E001E00160036003600665A
:10165000807F807F0006000600060000000000007A
:101660000000007F007F006000600060006E007F6F
:1016700080638001800180618073003F001E000054
:10168000000000000000001E003F80338061006009
:10169000006E007F80738061806180618033003FD5
:1016A000001E0000000000000000807F807F80019D
:1016B0000003000300060006000C000C000C0008EC
:1016C0000018001800180000000000000000001EB4
:1016D000003F8063806180610021001E003F8061C7
:1016E000806180618061003F001E000000000000FA
:1016F0000000001E003F0073806180618061807384
:10170000803F801D800180610073003F001E00004B
:101710000000000000000000000000000000000CBD
:10172000000C000000000000000000000000000CA1
:10173000000C00000000000000000000000000009D
:1017400000000000000C000C000000000000000081
:101750000000000C000C0004000400080000000061
:101760000000000080008003000E00380060003898
:10177000000E800380000000000000000000000058
:1017800000000000000000000000807F807F00005B
:101790000000807F807F000000000000000000004B
:1017A0000000000000000000000000000040007089
:1017B000001C000780010007001C007000400000B2
:1017C00000000000000000000000001F803FC0710A
:1017D000C060C000C00180030007000E000C000CB8
:1017E0000000000C000C0000000000000000001EC3
:1017F000003F803180718063806F806D806D806F6D
:10180000806700600032003E001C00000000000005
:101810000000000E000E001B001B001B001B80318F
:101820008031803F803F8031C060C060C060000078
:10183000000000000000007C007E00630063006385
:101840000063007E007E0063806180618063007FB2
:10185000007E0000000000000000001E003F8031FC
:101860008061006000600060006000600060806176
:101870008031003F001E0000000000000000007CDE
:10188000007F00638063806180618061806180612E
:10189000806100630063007E007C000000000000A7
:1018A0000000807F807F0060006000600060007F3B
:1018B000007F0060006000600060807F807F00002B
:1018C000000000000000807F807F006000600060FA
:1018D0000060007F007F00600060006000600060CA
:1018E00000600000000000000000001E003F80318A
:1018F000806100600060006080638063806180615F
:101900008031803F001E0000000000000000806168
:1019100080618061806180618061807F807F806183
:101920008061806180618061806100000000000052
:101930000000003F003F000C000C000C000C000CED
:10194000000C000C000C000C000C003F003F0000DD
:101950000000000000008001800180018001800102
:101960008001800180018001806180618073003F7F
:10197000001E0000000000000000C06080610063E5
:1019800000660066006C0078007C006600660063FC
:1019900080618061C0600000000000000000006005
:1019A0000060006000600060006000600060006037
:1019B000006000600060807F807F00000000000009
:1019C0000000C071C071C07BC07AC06AC06AC06EBE
:1019D000C064C060C060C060C060C060C060000023
:1019E000000000000000807180718079807980792A
:1019F000806D806D806D80658067806780678063A3
:101A000080630000000000000000001E003F003363
:101A100080618061806180618061806180618061BE
:101A20000033003F001E0000000000000000007EA8
:101A3000007F80638061806180618063007F007EC1
:101A400000600060006000600060000000000000B6
:101A50000000001E003F0033806180618061806172
:101A600080618061806580670033803F401E000098
:101A7000000000000000007E007F806380618061C4
:101A80008063007F007E0066006300638061806188
:101A9000C0600000000000000000000E001F803148
:101AA000803100300038001E0007800380618061B3
:101AB0008031003F001E0000000000000000C0FF59
:101AC000C0FF000C000C000C000C000C000C000C03
:101AD000000C000C000C000C000C000000000000CA
:101AE00000008061806180618061806180618061CF
:101AF00080618061806180618073003F001E000012
:101B0000000000000000C060C060C0608031803113
:101B10008031001B001B001B001B000E000E000E7E
:101B200000040000000000000000C0C0C0C0C0C031
:101B3000C0C0C0C0C0CC804C804C805E80528052FF
:101B40008073806180610000000000000000C0C060
:101B5000806080610033003B001E000C000C001E02
:101B6000001F003B80718061C0C0000000000000C9
:101B70000000C0C08061806100330033001E001E81
:101B8000000C000C000C000C000C000C000C000001
:101B9000000000000000803F803F80010003000340
:101BA0000006000C000C0018001800300060807F58
:101BB000807F000000000000000F000F000C000CF0
:101BC000000C000C000C000C000C000C000C000CB5
:101BD000000C000C000C000C000F000F000000189F
:101BE00000180018000C000C000C000C0006000689
:101BF00000060006000300030003000000000000D0
:101C0000001E001E00060006000600060006000674
:101C10000006000600060006000600060006000694
:101C2000001E001E0000000C000C001E00120033FD
:101C300000338061806100000000000000000000AF
:101C40000000000000000000000000000000000094
:101C50000000000000000000000000000000000084
:101C60000000000000000000E0FF0000000000385D
:101C70000018000C00000000000000000000000040
:101C80000000000000000000000000000000000054
:101C900000000000000000000000001F803F806185
:101CA0008001801F803F80618063807FC03800009A
:101CB0000000000000000060006000600060006E36
:101CC000007F807380618061806180618073007FAC
:101CD000006E000000000000000000000000000096
:101CE0000000001E003F8073806100600060806122
:101CF0008073003F001E0000000000000000800113
:101D0000800180018001801D803F8073806180613F
:101D1000806180618073803F801D000000000000B2
:101D200000000000000000000000001E003F0073E3
:101D30008061807F807F00608071003F001E000016
:101D4000000000000000C007C00F000C000C807FE6
:101D5000807F000C000C000C000C000C000C000C30
:101D6000000C000000000000000000000000000067
:101D7000801D803F8073806180618061806180739D
:101D8000803F801D80018063007F003E0000006076
:101D9000006000600060006F807F80718061806102
:101DA00080618061806180618061000000000000CE
:101DB00000000006000600000000003E003E000695
:101DC00000060006000600060006000600060000E9
:101DD000000000000006000600000000003E003E7B
:101DE00000060006000600060006000600060006C3
:101DF00000060046007E003C0000006000600060BD
:101E00000060806100630066006C007C0076006307
:101E100000638061C0600000000000000000003E20
:101E2000003E00060006000600060006000600064A
:101E30000006000600060006000600000000000084
:101E40000000000000000000000080DDC0FFC0CEE8
:101E5000C0CCC0CCC0CCC0CCC0CCC0CCC0CC0000AE
:101E60000000000000000000000000000000006F03
:101E7000807F80718061806180618061806180612C
:101E80008061000000000000000000000000000071
:101E90000000001E003F807380618061806180616E
:101EA0008073003F001E00000000000000000000E2
:101EB00000000000006E007F80738061806180619F
:101EC00080618073007F006E0060006000600060D1
:101ED0000000000000000000801D803F80738061D2
:101EE0008061806180618073803F801D80018001FE
:101EF0008001800100000000000000000000006779
:101F0000803F0039003000300030003000300030B9
:101F10000030000000000000000000000000000091
:101F20000000001E803F80610060007F803F8001D4
:101F30008061007F001E0000000000000000000023
:101F4000000800180018007F007F00180018001813
:101F5000001800180018801F800F0000000000000B
:101F600000000000000000000000806180618061CE
:101F700080618061806180618063807F803D00003E
:101F80000000000000000000000000000000C06031
:101F9000803180318031001B001B001B000E000EC1
:101FA000000600000000000000000000000000002B
:101FB000000080DD80DD80DD005500550055007794
:101FC0000077002200220000000000000000000056
:101FD000000000000000806100330033001E000C90
:101FE000000C001E00330033806100000000000080
:101FF000000000000000000080618061803100333B
:102000000033001B001B001B000E000E000E001C06
:10201000007C007000000000000000000000C07F95
:10202000C07F800100030006000C00180030C07F54
:10203000C07F00000000000080038007000600064B
:10204000000600060006000E001C001C000E000624
:102050000006000600060006800780030006000652
:102060000006000600060006000600060006000640
:102070000006000600060006000600060006000630
:102080000038003C000C000C000C000C000C000E92
:1020900000070007000E000C000C000C000C000CE8
:1020A000003C0038000000000000000000000000BC
:1020B00000008038807F0047000000000000000022
:1020C0000000000000000000E820000800000020E0
:1020D00018000000EC010008002100081800002092
:1020E000680A00000C0200080B1200006C130008C4
:1020F0003132334134353642373839432A3023447C
:040000050800018965
:00000001FF
